:100000000C9462000C948A000C948A000C948A0070
:100010000C948A000C948A000C948A000C948A0038
:100020000C948A000C948A000C948A000C948A0028
:100030000C948A000C948A000C948A000C948A0018
:100040000C94CC080C948A000C949A080C947408B4
:100050000C948A000C948A000C948A000C948A00F8
:100060000C948A000C948A000000000024002700F1
:100070002A0000000000250028002B0000000000DE
:1000800023002600290004040404040404040202DA
:100090000202020203030303030301020408102007
:1000A0004080010204081020010204081020000012
:1000B0000008000201000003040700000000000027
:1000C0000000160911241FBECFEFD8E0DEBFCDBF60
:1000D00011E0A0E0B1E0EEEAF5E102C005900D927A
:1000E000A23CB107D9F723E0A2ECB1E001C01D9218
:1000F000A330B207E1F710E0C2E6D0E004C02197D8
:10010000FE010E94CA0AC136D107C9F70E94D3096D
:100110000C94D50A0C94000096E0899FD00111241C
:10012000A458BD4F90967C936E935F9791E0919603
:100130009C9391979091E802E091E902F091EA0294
:10014000992339F0309751F0811108C080919802BD
:1001500004C0309719F05C968C9109940895DC01E5
:10016000ED91FC910190F081E02D0994CF92DF9206
:10017000EF92FF920F931F93CF93DF936C017A015D
:100180008B01C0E0D0E0CE15DF0589F0D8016D917C
:100190008D01D601ED91FC910190F081E02DC60119
:1001A0000995892B11F47E0102C02196ECCFC7017D
:1001B000DF91CF911F910F91FF90EF90DF90CF9043
:1001C0000895FC01538D448D252F30E0842F90E05D
:1001D000821B930B541710F0CF9608950197089542
:1001E000FC01918D828D981761F0828DDF01A80F3F
:1001F000B11D5D968C91928D9F5F9F73928F90E061
:1002000008958FEF9FEF0895FC01918D828D9817CF
:1002100031F0828DE80FF11D858D90E008958FEF0C
:100220009FEF0895FC01918D228D892F90E0805CD5
:100230009F4F821B91098F73992708958FED91E04D
:100240000E94120121E0892B09F420E0822F0895F9
:10025000FC01848DDF01A80FB11DA35ABF4F2C9163
:10026000848D90E001968F739927848FA689B78932
:100270002C93A089B1898C9180648C93938D848D0B
:10028000981306C00288F389E02D80818F7D8083DA
:100290000895EF92FF920F931F93CF93DF93EC019A
:1002A00081E0888F9B8D8C8D981305C0E889F98932
:1002B000808185FD24C0F62E0B8D10E00F5F1F4F4F
:1002C0000F731127E02E8C8DE8120CC00FB607FCBF
:1002D000FACFE889F989808185FFF5CFCE010E94A8
:1002E0002801F1CF8B8DFE01E80FF11DE35AFF4F7E
:1002F000F0820B8FEA89FB898081806207C0EE89DA
:10030000FF896083E889F98980818064808381E046
:1003100090E0DF91CF911F910F91FF90EF900895A2
:10032000CF93DF93EC01888D8823C9F0EA89FB899C
:10033000808185FD05C0A889B9898C9186FD0FC093
:100340000FB607FCF5CF808185FFF2CFA889B98968
:100350008C9185FFEDCFCE010E942801E7CFDF9180
:10036000CF91089580E090E0892B29F00E941E0132
:1003700081110C9400000895833081F028F48130BD
:1003800099F08230A1F008958730A9F08830B9F053
:100390008430D1F4809180008F7D03C080918000F3
:1003A0008F7780938000089584B58F7702C084B5DD
:1003B0008F7D84BD08958091B0008F7703C08091B8
:1003C000B0008F7D8093B0000895CF93DF93282FE6
:1003D00030E0F901E255FF4F8491F901E656FF4FF5
:1003E000D491F901EA57FF4FC491CC2391F08111C8
:1003F0000E94BC01EC2FF0E0EE0FFF1FE458FF4F0E
:10040000A591B491EC91ED2381E090E021F480E09E
:1004100002C080E090E0DF91CF910895862F0C9488
:10042000E5011F93CF93DF93282F30E0F901E255C8
:10043000FF4F8491F901E656FF4FD491F901EA5735
:10044000FF4FC491CC23C9F0162F81110E94BC012B
:10045000EC2FF0E0EE0FFF1FEE58FF4FA591B49187
:100460008FB7F894111105C09C91ED2FE095E92309
:1004700002C0EC91ED2BEC938FBFDF91CF911F91D8
:100480000895862F642F0C941102CF93DF9390E090
:10049000FC01E656FF4F2491FC01EA57FF4F84917F
:1004A000882361F190E0880F991FFC01E859FF4F04
:1004B000C591D491FC01EE58FF4FA591B491611103
:1004C00009C09FB7F8948881209582238883EC9196
:1004D0002E230BC0623061F49FB7F8943881822FCD
:1004E000809583238883EC912E2B2C939FBF06C08D
:1004F0008FB7F894E8812E2B28838FBFDF91CF919F
:100500000895862F642F0C9445023FB7F89480918C
:10051000D8019091D901A091DA01B091DB0126B503
:10052000A89B05C02F3F19F00196A11DB11D3FBF2B
:10053000BA2FA92F982F8827820F911DA11DB11DB9
:10054000BC01CD0142E0660F771F881F991F4A95B5
:10055000D1F708958F929F92AF92BF92CF92DF9280
:10056000EF92FF926B017C010E9485024B015C01BE
:10057000C114D104E104F104F1F00E948502DC0110
:10058000CB0188199909AA09BB09883E9340A105A6
:10059000B10570F321E0C21AD108E108F10888EE34
:1005A000880E83E0981EA11CB11CC114D104E10483
:1005B000F10419F7DDCFFF90EF90DF90CF90BF905F
:1005C000AF909F908F9008952FB7F8946091D401C9
:1005D0007091D5018091D6019091D7012FBF0895D8
:1005E0000F931F93CF93DF93C82FD62F86E0C89F1A
:1005F000F0011124E458FD4F11A2878D90A18130A4
:100600009105F1F01CF4892B49F043C0823091052B
:10061000A9F10397F1F560E070E034C06623C9F1F9
:1006200061E070E08C2F0E948C000E94E4026093D5
:10063000D4027093D5028093D6029093D70229C03A
:100640000E94E4020091D4021091D5022091D602BA
:100650003091D702AB01BC01401B510B620B730BF5
:100660008091E6029091E702A0E0B0E08417950740
:10067000A607B70718F462E070E004C0D11109C002
:1006800063E070E08C2FDF91CF911F910F910C945C
:100690008C00DF91CF911F910F9108956F927F92FF
:1006A0008F929F92AF92BF92CF92DF92EF92FF9282
:1006B0000F931F93CF93DF9381E08093E8020E9412
:1006C000E4020091D8021091D9022091DA0230910F
:1006D000DB02AB01BC01401B510B620B730B809121
:1006E000E4029091E502A0E0B0E084179507A60728
:1006F000B70708F00BC1C0E08091E202C81760F4B0
:10070000E091DE02F091DF02EC0FF11D62E08081EA
:100710000E944502CF5FF0CF712C812C912C5401A7
:1007200083948091E302781608F05FC0072D10E0F3
:10073000E091E002F091E102E00FF11F61E08081C1
:100740000E944502E091E002F091E102E00FF11F0A
:1007500060E080810E941102D501C401072C04C011
:10076000880F991FAA1FBB1F0A94D2F76C017C0146
:10077000E094F094612C8091E2026816F8F4C62DA2
:10078000D0E0E091DE02F091DF02EC0FFD1F8081EE
:100790000E94E5012496CC0FDD1FC458DD4F892B44
:1007A00029F4888199818C299D2904C088819981A7
:1007B0008E219F21998388836394DDCFE091E002AD
:1007C000F091E102E00FF11F61E080810E941102CF
:1007D0008091E0029091E102FC01E00FF11F60E0E6
:1007E00080810E94450273949CCFE8E9F2E08FEF8C
:1007F0009FEF23813481232B21F410829283818304
:100800001582369622E0E43DF20799F710E096E073
:10081000F92E8091E202181708F052C000E0C12FB3
:10082000D0E0CC0FDD1FCC57DD4F2091E302021743
:1008300008F044C068817981002E02C076956795E2
:100840000A94E2F761707727129F90011124200F1C
:10085000311DE091DC02F091DD02E20FF31F4081D7
:10086000ECE7F2E080E0A58DB68DA217B30711F496
:1008700061701AC08F5F36968A30A9F7672BE1F056
:10088000E8E9F2E080E090E05081511110C0F89E5C
:10089000F001F99EF00D1124E458FD4F448F368F7E
:1008A000258F10A2178E61E00E94F00205C001960C
:1008B00036968A30910541F70F5FB7CF1F5FA9CFFA
:1008C00080E090E0C0E0FC01E458FD4F21A121113F
:1008D000C1E006968C339105B1F70E94E402609363
:1008E000D8027093D9028093DA029093DB02CC2372
:1008F00069F080919D02882349F080919B0290913C
:100900009C02019719F48091980203C01092E802AA
:1009100080E0DF91CF911F910F91FF90EF90DF90DA
:10092000CF90BF90AF909F908F907F906F900895E1
:10093000CF93DF93EC0160E08E810E94110261E0B1
:100940008E810E94110260E08E810E9411028BE86C
:1009500091E00197F1F7DF91CF910895CF92DF9267
:10096000EF92FF920F931F93CF93DF937C016C0163
:1009700087E0C80ED11CC0E0D0E0062F10E0B8011F
:100980000C2E02C0759567950A94E2F76170F60126
:1009900081916F010E9411022196C430D10579F72F
:1009A000C701DF91CF911F910F91FF90EF90DF90E2
:1009B000CF900C949804CF92DF92EF92FF920F9316
:1009C0001F93CF93DF93EC01F62E642F8C810E944E
:1009D00011028D818F3F19F060E00E9411028F8516
:1009E0000F2D10E084FF25C06E0187E0C80ED11CDA
:1009F000E12CF12CB8010E2C02C0759567950A9474
:100A0000E2F76170F60181916F010E941102FFEF20
:100A1000EF1AFF0A88E0E816F10461F7CE01DF91D2
:100A2000CF911F910F91FF90EF90DF90CF900C949A
:100A30009804B80184E0759567958A95E1F7CE0131
:100A40000E94AE046F2DCE01DF91CF911F910F91C7
:100A5000FF90EF90DF90CF900C94AE0441E00E94A5
:100A6000DB0481E090E0089540E00C94DB048430E6
:100A700008F083E09091FE02891710F08FEF890F44
:100A8000E82FF0E0E551FD4F648960688BEE92E05D
:100A90000C94340561E00E9434058BE39FE10197DB
:100AA000F1F70895EF92FF920F931F93CF93DF9387
:100AB000EC01623018F08F8588608F876B8B1C8A01
:100AC00080E48D8B80E18E8B80E58F8B61E08C8163
:100AD0000E9445028D818F3F19F061E00E9445021E
:100AE00061E08E810E9445027E0187E0E80EF11CE4
:100AF00000E010E08F8584FD03C084E090E002C038
:100B000088E090E0081719074CF461E0F701819143
:100B10007F010E9445020F5F1F4FECCF8BE39DE0EA
:100B20000197F1F760E08C810E94110260E08E81F4
:100B30000E9411028D818F3F19F060E00E94110226
:100B40006F8564FD1DC063E0CE010E94AE040BE41E
:100B500016E4C8010197F1F763E0CE010E94AE04EC
:100B6000C8010197F1F763E0CE010E94AE0483E56E
:100B700092E00197F1F762E0CE010E94AE0416C048
:100B80006062CE010E9434058BE496E40197F1F790
:100B90006F856062CE010E94340583E592E0019783
:100BA000F1F76F856062CE010E9434056F85606247
:100BB000CE010E94340584E0888B6CE0CE010E9457
:100BC0003405CE010E944A0582E0898B66E0CE01A1
:100BD000DF91CF911F910F91FF90EF900C9434050E
:100BE000089580E090E008950E94D00A6115710593
:100BF00079F0FB0101900020E9F73197AF01461B26
:100C0000570BDC01ED91FC910280F381E02D0994FA
:100C100080E090E00895BC018BEE92E00C94F60524
:100C20008BEE92E00E944A0580E00E94370580E446
:100C300091E00E940B0681E00E9437058FE491E06D
:100C40000E940B066091DC018BEE92E00E94AF00E7
:100C500064E670E080E090E00C94AA022F923F924C
:100C60004F925F926F927F928F929F92AF92BF92BC
:100C7000CF92DF92EF92FF920F931F93CF93DF9368
:100C8000CDB7DEB7A1970FB6F894DEBF0FBECDBFCC
:100C9000EE24E394F12C93E0892E912C22E0222E75
:100CA000312C3AE0432E512C612C712C0E944E03C2
:100CB000082F880F110B1092D2010115110509F4AC
:100CC000F3C12091D0013091D1012F5F3F4F30937C
:100CD000D1012093D0015901330FCC08DD08D7FE94
:100CE00020C06DE28FED91E00E94AF0022273327F4
:100CF000A9012A193B094C095D0919A2CE01819667
:100D00006C01CA01B901A30192010E94A80A605DA9
:100D1000F60162936F01211531054105510589F7EF
:100D200015C0A601950119A2CE0181966C01CA01D8
:100D3000B901A30192010E94A80A605DF6016293C5
:100D40006F01211531054105510589F7B6018FED78
:100D500091E00E94F6056EE571E08FED91E00E9452
:100D6000F6058091D0019091D1010197B1F48BEEFD
:100D700092E00E944A0580E00E94370581E691E0FA
:100D80000E940B0681E00E9437058EE691E00E94EA
:100D90000B061093C5010093C4018091D00190917E
:100DA000D1010297B1F48BEE92E00E944A0580E0F7
:100DB0000E94370581E691E00E940B0681E00E94C7
:100DC00037058DE691E00E940B061093C701009352
:100DD000C6018091D0019091D1010397B1F48BEEBF
:100DE00092E00E944A0580E00E94370581E691E08A
:100DF0000E940B0681E00E9437058CE691E00E947C
:100E00000B061093C9010093C8018091D001909105
:100E1000D1010497D1F48BEE92E00E944A0580E064
:100E20000E94370581E691E00E940B0681E00E9456
:100E300037058BE691E00E940B061093CB010093DF
:100E4000CA01F092C301E092C2018091D001909159
:100E5000D1010597D1F48BEE92E00E944A0580E023
:100E60000E94370581E691E00E940B0681E00E9416
:100E700037058AE691E00E940B061093CD0100939E
:100E8000CC013092C3012092C2018091D001909197
:100E9000D1010697D1F48BEE92E00E944A0580E0E2
:100EA0000E94370581E691E00E940B0681E00E94D6
:100EB000370589E691E00E940B061093CF0100935D
:100EC000CE019092C3018092C2018091C2019091A3
:100ED000C3018130910531F48091DC01843309F044
:100EE000E3C011C08230910531F48091DC0185337B
:100EF00009F0DAC008C0039709F0D6C08091DC0180
:100F0000863309F0D1C06AEF70E080E090E00E9483
:100F1000AA028091C4019091C50182339105C1F468
:100F20008091C6019091C7018134910509F08DC06F
:100F30008091C8019091C901C39709F086C0809142
:100F4000CA019091CB018234910509F07EC049C05D
:100F500084339105F9F48091C6019091C7018334DF
:100F6000910509F072C08091C8019091C901C7979D
:100F700009F06BC08091CA019091CB018434910536
:100F800009F063C08091CC019091CD01C29709F026
:100F90005CC027C08134910509F057C08091C6011B
:100FA0009091C701C89709F050C08091C8019091F5
:100FB000C9018334910509F048C08091CA0190911C
:100FC000CB01C59709F041C08091CC019091CD0132
:100FD00084349105D1F58091CE019091CF01C397D2
:100FE000A1F560E771E08FED91E00E94F6056EE5F6
:100FF00071E08FED91E00E94F6051092D101109200
:10100000D0018BEE92E00E944A0580E00E943705F5
:1010100089E791E00E940B0661E083E00E941102E3
:1010200068EE73E080E090E00E94AA0260E083E056
:101030000E941102F092DE01E092DD011092C301E4
:101040001092C2011092DC012BC01092D1011092BB
:10105000D00168E871E08FED91E00E94F6056EE541
:1010600071E08FED91E00E94F6051092C30110929D
:10107000C2018BEE92E00E944A0580E00E94370593
:101080008EE891E00E940B0660ED77E080E090E052
:101090000E94AA021092DC01F092DE01E092DD01D2
:1010A0001092D1011092D0018091DD019091DE016A
:1010B000019709F0FBCDA1960FB6F894DEBF0FBEE5
:1010C000CDBFDF91CF911F910F91FF90EF90DF90F7
:1010D000CF90BF90AF909F908F907F906F905F90D8
:1010E0004F903F902F9008951F920F920FB60F923E
:1010F00011242F933F934F935F936F937F938F931D
:101100009F93AF93BF93EF93FF938FED91E00E9476
:101110002801FF91EF91BF91AF919F918F917F91A6
:101120006F915F914F913F912F910F900FBE0F9054
:101130001F9018951F920F920FB60F9211242F93A4
:101140008F939F93EF93FF93E091EF01F091F00164
:101150008081E091F501F091F60182FD12C090814D
:101160008091F8018F5F8F732091F901821751F000
:10117000E091F801F0E0E152FE4F958F8093F80185
:1011800001C08081FF91EF919F918F912F910F90DE
:101190000FBE0F901F9018951F920F920FB60F92CF
:1011A00011242F933F938F939F93AF93BF9380917D
:1011B000D4019091D501A091D601B091D701309181
:1011C000D30123E0230F2D3720F40196A11DB11D7B
:1011D00005C026E8230F0296A11DB11D2093D3015F
:1011E0008093D4019093D501A093D601B093D701F9
:1011F0008091D8019091D901A091DA01B091DB01E1
:101200000196A11DB11D8093D8019093D901A0939F
:10121000DA01B093DB01BF91AF919F918F913F9124
:101220002F910F900FBE0F901F9018951092E20112
:101230001092E10188EE93E0A0E0B0E08093E3013A
:101240009093E401A093E501B093E6018CE191E075
:101250009093E0018093DF0185EC90E09093EC01A6
:101260008093EB0184EC90E09093EE018093ED018C
:1012700080EC90E09093F0018093EF0181EC90E09E
:101280009093F2018093F10182EC90E09093F4014D
:101290008093F30186EC90E09093F6018093F50142
:1012A0001092F8011092F9011092FA011092FB01CC
:1012B0001092EE021092ED0288E391E09093EC021E
:1012C0008093EB028EE08093EF028FEF8093F00229
:1012D0008FE08093F10280E18093F20281E18093BC
:1012E000F30282E18093F40283E18093F50210928D
:1012F000F6021092F7021092F8021092F902109280
:10130000FA0261E08BEE92E00E94520510927E029A
:101310001092820210928102109283028EE291E07A
:1013200090937D0280937C0280E090E0FC01E45881
:10133000FD4F148E10A2178E11A206968C339105C4
:10134000A9F784E091E09093DF028093DE0280E0D1
:1013500091E09093E1028093E00284E08093E202C6
:101360008093E30288E091E09093DD028093DC02B9
:101370008AE090E09093E5028093E40284EF91E0AC
:101380009093E7028093E6021092EA021092E9023B
:101390001092D8021092D9021092DA021092DB0257
:1013A0001092E8020895789484B5826084BD84B573
:1013B000816084BD85B5826085BD85B5816085BD50
:1013C00080916E00816080936E0010928100809108
:1013D0008100826080938100809181008160809390
:1013E0008100809180008160809380008091B100B5
:1013F00084608093B1008091B00081608093B000E0
:1014000080917A00846080937A0080917A00826073
:1014100080937A0080917A00816080937A00809135
:101420007A00806880937A001092C10061E083E0C6
:101430000E944502E091EF01F091F00182E080838B
:10144000E091EB01F091EC011082E091ED01F0915F
:10145000EE018FEC80831092F701E091F301F0919F
:10146000F40186E08083E091F101F091F201808146
:1014700080618083E091F101F091F20180818860C8
:101480008083E091F101F091F20180818068808396
:10149000E091F101F091F20180818F7D808362E023
:1014A0008BEE92E00E9452058BEE92E00E944A057C
:1014B00080E00E9437058FE991E00E940B0681E0F1
:1014C0000E9437058DEA91E00E940B0664E670E009
:1014D00080E090E00E94AA021092DE011092DD01ED
:1014E0000E944E038093DC01682F8FED91E00E94F3
:1014F000AF006EE571E08FED91E00E94F6058091FE
:10150000DC018823E1F0853321F0863311F0843348
:1015100029F40E9410060E942E0611C08BEE92E064
:101520000E944A0580E00E9437058CEB91E00E9402
:101530000B0668E572E080E090E00E94AA0261E09C
:1015400070E080E090E00E94AA020E94B201ACCF5D
:10155000A1E21A2EAA1BBB1BFD010DC0AA1FBB1FB7
:10156000EE1FFF1FA217B307E407F50720F0A21B29
:10157000B30BE40BF50B661F771F881F991F1A9496
:1015800069F760957095809590959B01AC01BD01C0
:10159000CF010895EE0FFF1F0590F491E02D0994FF
:0E15A00081E090E0F8940C94D50AF894FFCF07
:1015AE00090807060D0C0B0A313233413435364229
:1015BE00373839432A302344000000004901B60071
:1015CE00E10090011201F000040100000000810210
:1015DE0041020E02000000002E05B600F105F005D6
:1015EE0020202A4249454E56454E49444F2A00492D
:1015FE004E475245534520434C41564520000D0A57
:10160E00003C434C4156453E002A2A2A2A2A2A00EB
:10161E00436F72726563746F00434C4156452043AD
:10162E004F525245435441004572726F7200434C03
:10163E0041564520494E434F525245435441005363
:10164E00454C454343494F4E4520454C004E726F25
:10165E002044452044494749544F53004552524F68
:02166E00520028
:107E0000112484B714BE81FFF0D085E080938100F7
:107E100082E08093C00088E18093C10086E0809377
:107E2000C20080E18093C4008EE0C9D0259A86E02C
:107E300020E33CEF91E0309385002093840096BBD3
:107E4000B09BFECF1D9AA8958150A9F7CC24DD24C4
:107E500088248394B5E0AB2EA1E19A2EF3E0BF2EE7
:107E6000A2D0813461F49FD0082FAFD0023811F036
:107E7000013811F484E001C083E08DD089C08234E0
:107E800011F484E103C0853419F485E0A6D080C0E4
:107E9000853579F488D0E82EFF2485D0082F10E0AE
:107EA000102F00270E291F29000F111F8ED06801E7
:107EB0006FC0863521F484E090D080E0DECF843638
:107EC00009F040C070D06FD0082F6DD080E0C81688
:107ED00080E7D80618F4F601B7BEE895C0E0D1E017
:107EE00062D089930C17E1F7F0E0CF16F0E7DF06D8
:107EF00018F0F601B7BEE89568D007B600FCFDCFD4
:107F0000A601A0E0B1E02C9130E011968C91119780
:107F100090E0982F8827822B932B1296FA010C0160
:107F200087BEE89511244E5F5F4FF1E0A038BF0790
:107F300051F7F601A7BEE89507B600FCFDCF97BE46
:107F4000E89526C08437B1F42ED02DD0F82E2BD052
:107F50003CD0F601EF2C8F010F5F1F4F84911BD097
:107F6000EA94F801C1F70894C11CD11CFA94CF0C13
:107F7000D11C0EC0853739F428D08EE10CD085E9AC
:107F80000AD08FE07ACF813511F488E018D01DD067
:107F900080E101D065CF982F8091C00085FFFCCF94
:107FA0009093C60008958091C00087FFFCCF809118
:107FB000C00084FD01C0A8958091C6000895E0E648
:107FC000F0E098E1908380830895EDDF803219F02E
:107FD00088E0F5DFFFCF84E1DECF1F93182FE3DFCA
:107FE0001150E9F7F2DF1F91089580E0E8DFEE27F6
:047FF000FF270994CA
:027FFE00040479
:0400000300007E007B
:00000001FF
